:100000000C94CF010C94F7010C94F7010C946E0E34
:100010000C94980E0C94C20E0C94F7010C94F701FA
:100020000C94F7010C940C050C94F7010C94F70157
:100030000C94F7010C94F7010C94F7010C94F70160
:100040000C941C180C94F7010C94CB190C94191AED
:100050000C94F7010C94F7010C94F7010C94F70140
:100060000C946D160C94F7011414281438144B14C6
:100070005314A114AA14B514BD14C414C414C41484
:10008000C414C414C414C414C414C414C414C414B0
:10009000C414C414C414C414C414C414C414C414A0
:1000A000C414C414C414C41414142014281438140C
:1000B0004B14531466146E14761407634236B79BC0
:1000C000D8A71A39685618AEBAAB558C1D3CB7CCB8
:1000D0005763BD6DEDFD753EF6177231BF00000030
:1000E000803F08000000BE922449123EABAAAA2A13
:1000F000BECDCCCC4C3E00000080BEABAAAAAA3E2E
:1001000000000000BF000000803F00000000000869
:100110004178D3BB4387D1133D190E3CC3BD428206
:10012000AD2B3E68EC8276BED98FE1A93E4C80EFC4
:10013000FFBE01C4FF7F3F00000000007F8182847A
:100140008587888A8B8D8F909293959698999B9CA2
:100150009E9FA1A3A4A6A7A8AAABADAEB0B1B3B40D
:10016000B6B7B8BABBBCBEBFC1C2C3C5C6C7C8CA92
:10017000CBCCCDCFD0D1D2D3D5D6D7D8D9DADBDC42
:10018000DDDFE0E1E2E3E4E4E5E6E7E8E9EAEBEC21
:10019000ECEDEEEFEFF0F1F2F2F3F4F4F5F5F6F743
:1001A000F7F8F8F9F9F9FAFAFBFBFBFCFCFCFDFDAA
:1001B000FDFDFEFEFEFEFEFEFEFEFEFEFFFEFEFE60
:1001C000FEFEFEFEFEFEFEFDFDFDFDFCFCFCFBFB5F
:1001D000FBFAFAF9F9F9F8F8F7F7F6F5F5F4F4F3AC
:1001E000F2F2F1F0EFEFEEEDECECEBEAE9E8E7E646
:1001F000E5E4E4E3E2E1E0DFDDDCDBDAD9D8D7D621
:10020000D5D3D2D1D0CFCDCCCBCAC8C7C6C5C3C237
:10021000C1BFBEBCBBBAB8B7B6B4B3B1B0AEADAB7C
:10022000AAA8A7A6A4A3A19F9E9C9B9998969593E4
:1002300092908F8D8B8A8887858482817F7D7C7A5E
:100240007977767473716F6E6C6B696866656362DB
:10025000605F5D5B5A585756545351504E4D4B4A50
:10026000484746444342403F3D3C3B3938373634AB
:100270003332312F2E2D2C2B2928272625242322DB
:10028000211F1E1D1C1B1A1A1918171615141312DC
:100290001211100F0F0E0D0C0C0B0A0A090908079A
:1002A0000706060505050404030303020202010113
:1002B000010100000000000000000000000000003C
:1002C000000000000000000101010102020203031E
:1002D000030404050505060607070809090A0A0BB1
:1002E0000C0C0D0E0F0F10111212131415161718F7
:1002F000191A1A1B1C1D1E1F2122232425262728FC
:10030000292B2C2D2E2F31323334363738393B3CC4
:100310003D3F404243444647484A4B4D4E5051535F
:10032000545657585A5B5D5F606263656668696BD7
:100330006C6E6F7173747677797A7C7D0000000043
:10034000240027002A0000000000250028002B00C0
:100350000000000023002600290004040404040413
:100360000404020202020202030303030303010264
:100370000408102040800102040810200102040833
:100380001020000000070002010000030406000026
:100390000000000000005205E20675157C1B1124C8
:1003A0001FBECFEFD8E0DEBFCDBF12E0A0E0B1E0CE
:1003B000E2E4F0E402C005900D92A432B107D9F74F
:1003C00016E0A4E2B2E001C01D92A03CB107E1F743
:1003D00013E0CEE9D3E004C02297FE010E94E41F9F
:1003E000C639D107C9F70E94D21B0C941F200C9468
:1003F0000000FC0188279927E89421912032E9F335
:10040000293010F02E30C8F32B3241F02D3239F460
:10041000689404C00E942902820F911D21912053EB
:100420002A30C0F31EF4909581959F4F0895FB01EB
:10043000DC010D900020E9F7119701900D9200204A
:10044000E1F70895FB01DC0101900D920020E1F736
:1004500008957AE0979F902D879F802D910D11240C
:100460000895AEE0B0E0E7E3F2E00C94F61F0D89EA
:100470001E898F89988D97FF02C080E090E80197D0
:100480009E838D831A83098386E08C839E01255E7B
:100490003F4FCE010196698D7A8DA9010E94860297
:1004A0004D815E8157FD0AC02F8138854217530761
:1004B0000CF49A01020F131FF80110822E96E4E04B
:1004C0000C941220AEE0B0E0E8E6F2E00C94F61FE7
:1004D0000D891E8986E08C831A8309838FEF9FE73D
:1004E0009E838D839E01275E3F4FCE0101966F89CB
:1004F000788DA9010E9486022F813885020F131F73
:10050000F80110822E96E4E00C941220ABE0B0E0EB
:10051000ECE8F2E00C94E81F3C012B015A01FC01CD
:1005200017821682838181FD03C06FEF7FEFC6C102
:100530009AE0892E1E010894211C311CF3012381AD
:10054000F20123FD859123FF81912F01882309F476
:10055000B2C1853239F423FD859123FF81912F01AA
:10056000853229F490E0B3010E947904E7CF982FF7
:10057000FF24EE249924FFE1FF15D0F09B3269F0AF
:100580009C3228F4903259F0933291F40EC09D328F
:1005900049F0903369F441E024C052E0F52A84E048
:1005A000F82A28C098E0F92A25C0E0E1FE2A22C0F6
:1005B000F7FC29C0892F80538A3070F4F6FE05C0FD
:1005C000989C902C1124980E15C0E89CE02C1124C6
:1005D000E80EF0E2FF2A0EC09E3229F4F6FC6BC151
:1005E00040E4F42A07C09C3619F450E8F52A02C00A
:1005F000983649F4F20123FD959123FF91912F0143
:10060000992309F0B8CF892F8554833018F0805290
:10061000833038F444E050E0A40EB51E5FE3598304
:100620000FC0933631F0933779F0933509F056C007
:1006300020C0F5018081898342E050E0A40EB51E00
:10064000610101E010E012C0F501C080D180F6FC2C
:1006500003C06FEF7FEF02C0692D70E042E050E011
:10066000A40EB51EC6010E946E048C015FE7F52240
:1006700014C0F501C080D180F6FC03C06FEF7FEF9E
:1006800002C0692D70E042E050E0A40EB51EC60124
:100690000E9463048C0150E8F52AF3FE07C01AC0DB
:1006A00080E290E0B3010E947904EA948E2D90E0FC
:1006B00008171907A8F30EC0F601F7FC8591F7FE9D
:1006C00081916F0190E0B3010E947904E110EA94F6
:1006D000015010400115110579F7EAC0943611F068
:1006E000993669F5F7FE08C0F50120813181428114
:1006F000538184E090E00AC0F501808191819C01E2
:10070000442737FD4095542F82E090E0A80EB91E93
:100710009FE6F92257FF09C05095409530952195E5
:100720003F4F4F4F5F4FE0E8FE2ACA01B901A101D8
:100730002AE030E00E94A504D82ED21840C0953798
:1007400029F41F2D1F7E2AE030E01DC01F2D197FC8
:100750009F3661F0903720F4983509F0ACC00FC097
:10076000903739F0983709F0A6C004C028E030E08F
:100770000AC0106114FD146020E130E004C014FDD3
:10078000166020E132E017FF08C0F5016081718139
:100790008281938144E050E008C0F501808191811D
:1007A000BC0180E090E042E050E0A40EB51EA10143
:1007B0000E94A504D82ED2188FE7F82EF122F6FE5B
:1007C0000BC05EEFF522D91438F4F4FE07C0F2FC3A
:1007D00005C08FEEF82202C01D2D01C0192DF4FEB8
:1007E0000DC0FE01ED0DF11D8081803319F499EEED
:1007F000F92208C01F5FF2FE05C003C08F2D867866
:1008000009F01F5F0F2DF3FC14C0F0FE0FC01E1582
:1008100010F09D2C0BC09D2C9E0C911A1E2D06C015
:1008200080E290E0B3010E9479041F5F1E15C0F3BF
:1008300004C01E1510F4E11A01C0EE2404FF0FC01D
:1008400080E390E0B3010E94790402FF1DC001FD26
:1008500003C088E790E00EC088E590E00BC0802FD1
:10086000867891F001FF02C08BE201C080E2F7FCC4
:100870008DE290E0B3010E94790406C080E390E02D
:10088000B3010E9479049A94D914C0F3DA94F10167
:10089000ED0DF11D808190E0B3010E947904DD200F
:1008A000A9F706C080E290E0B3010E947904EA94BF
:1008B000EE20C1F743CEF30166817781CB012B9601
:1008C000E2E10C940420FC0105906150704001109D
:1008D000D8F7809590958E0F9F1F0895FC01615069
:1008E000704001900110D8F7809590958E0F9F1F52
:1008F00008950F931F93CF93DF938C01EB018B81AE
:1009000081FF1BC082FF0DC02E813F818C819D81A4
:100910002817390764F4E881F9810193F983E883A2
:1009200006C0E885F985802F0995892B31F48E81E1
:100930009F8101969F838E8302C00FEF1FEFC80136
:10094000DF91CF911F910F910895FA01AA272830C6
:1009500051F1203181F1E8946F936E7F6E5F7F4F8C
:100960008F4F9F4FAF4FB1E03ED0B4E03CD0670F08
:10097000781F891F9A1FA11D680F791F8A1F911D5B
:10098000A11D6A0F711D811D911DA11D20D009F4AB
:1009900068943F912AE0269F11243019305D3193ED
:1009A000DEF6CF010895462F4770405D4193B3E0D6
:1009B0000FD0C9F7F6CF462F4F70405D4A3318F07D
:1009C000495D31FD4052419302D0A9F7EACFB4E02E
:1009D000A6959795879577956795BA95C9F70097E6
:1009E0006105710508959B01AC010A2E0694579587
:1009F000479537952795BA95C9F7620F731F841FDE
:100A0000951FA01D08957093560260935502909310
:100A10005A028093590208951F920F920FB60F92B7
:100A200011242F938F939F93AF93BF93EF93FF93D3
:100A300090913102809132029817C1F480912C027A
:100A4000882321F180912D0290912E02A0912F02F6
:100A5000B09130020196A11DB11D80932D0290939B
:100A60002E02A0932F02B093300210C0E091320208
:100A7000F0E0ED5CFD4F20818091320290E0019624
:100A80008F719070809332022093B400FF91EF91A8
:100A9000BF91AF919F918F912F910F900FBE0F90AB
:100AA0001F901895AF92BF92CF92DF92EF92FF9274
:100AB0000F931F93A090DE01B090DF01C090E00182
:100AC000D090E1019C2D8B2D7A2D662720EB34E010
:100AD00040E050E00E94C01F309325022093240282
:100AE000E090DC01F090DD0100E010E0C801B7010A
:100AF00020EB34E040E050E00E948D1F37E0660FAD
:100B0000771F881F991F3A95D1F7A60195010E947A
:100B1000C01F3093270220932602C801B70128E99D
:100B200038E040E050E00E948D1F27E0660F771FFD
:100B3000881F991F2A95D1F7A60195010E94C01F11
:100B400030932902209328028EEF91E090932B029C
:100B500080932A021F910F91FF90EF90DF90CF902A
:100B6000BF90AF9008950F931F93CF93DF930091A1
:100B7000590210915A02A0912602B0912702C09109
:100B80002802D09129024091DC015091DD014150B1
:100B900050406091240270912502ADC02091530213
:100BA00030915402809155029091560228173907CE
:100BB00011F410922C0280912C02882389F4F8946D
:100BC00090913102809132027894981709F0A2C076
:100BD0000E94D9068AE292E00E94400D80E09BC00C
:100BE00080915702909158028F3F910509F050F57E
:100BF000809153029091540287709070892B69F410
:100C0000E0915302F091540293E0F695E7959A959E
:100C1000E1F7E00FF11F808103C080915B028695B0
:100C200080935B0280915B0280FD0CC080915C022E
:100C300090915D028A279B278C279D2790935D02C8
:100C400080935C0220915E0230915F0280915C0291
:100C500090915D02820F931F90935F0280935E02DA
:100C6000E0915E02F0915F02EE0FEF2FEE1FFF0B9F
:100C7000F195E423F523E45CFE4F249180915C021E
:100C800090915D028A179B0711F42695205CF894D9
:100C9000E0913102F0E0ED5CFD4F20838091310264
:100CA00090E001968F7190708093310278948091DA
:100CB00057029091580280509F4F90935802809312
:100CC000570280915702909158028617970798F023
:100CD0008091530290915402019690935402809314
:100CE00053028091570290915802861B970B909364
:100CF000580280935702F894809131022091320279
:100D0000789490E001968F71907030E0821793078D
:100D100009F044CF81E0DF91CF911F910F910895A9
:100D2000809126029091270290935D0280935C024D
:100D300010925F0210925E021092540210925302BF
:100D4000109258021092570281E080932C020E9468
:100D5000B3050E94B7068AE292E00E94450D0E9408
:100D6000D20608958AE292E00E94500D0895E6EBC3
:100D7000F0E080818F798083E0EBF0E08081836018
:100D80008083A1EBB0E08C91877F8C9380818F7002
:100D9000806280838C91887F81608C938FE78093C1
:100DA000B4000895B89AE0E7F0E080818160808324
:100DB00008958FE78093B400E0E7F0E080818E7FB4
:100DC0008083089580E692E00E94EC0E0895EF92F1
:100DD000FF920F931F93CF93DF930E9470187B01B4
:100DE0008C018EE996E00E94D21A892B19F4C0E09A
:100DF000D0E00BC08EE996E00E94031B682F80E6CE
:100E000092E00E94D014C82FD0E00E9470186E1992
:100E10007F09800B910B605D77408040904018F413
:100E2000CD2B19F4DECFCD2B19F00E94B10A02C0F0
:100E30000E947A0ADF91CF911F910F91FF90EF905E
:100E400008950E9470182091D3023091D4024091ED
:100E5000D5025091D602621B730B840B950B97FD44
:100E600027C084E061E00E94F10C0E94E7060E9426
:100E70007E078091D3029091D402A091D502B091C7
:100E8000D60280519D42AF4FBF4F8093D3029093C3
:100E9000D402A093D502B093D60202C00E94170DCF
:100EA0000E94B3058823D1F784E060E00E94F10C32
:100EB0000E94170D089587E061E00E94371987E0CE
:100EC00060E00E94F10C84E061E00E94371984E048
:100ED00060E00E94F10C0E94CE0C0E94B20683E9F1
:100EE00095E00E94FE150E9470186093D3027093E3
:100EF000D4028093D5029093D6020895AF92BF9208
:100F0000CF92DF92EF92FF920F931F93DF93CF93D5
:100F1000CDB7DEB72C970FB6F894DEBF0FBECDBFAE
:100F200082EE91E063E070E00E94F5098FE20E949A
:100F30009E098CED94E00E94E90988E60E949E09D2
:100F40008BEE94E00E94E9098FE20E949E0984EFF3
:100F500094E00E94E9098FE40E949E092DB73EB7F4
:100F6000285030400FB6F8943EBF0FBE2DBF0DB7CE
:100F70001EB70F5F1F4F7E010894E11CF11CADB737
:100F8000BEB71296FC92EE92119724E0A22EB12CDD
:100F9000F801B382A28290E0C92E91E0D92ED582C9
:100FA000C4826091FE047091FF04809100059091CD
:100FB000010520E030E040E05FE30E940C1C0E944D
:100FC000DC1CD80117967C936E9316970E94310211
:100FD000EDB7FEB738960FB6F894FEBF0FBEEDBF63
:100FE000C7010E94E9098FE20E949E092DB73EB712
:100FF000285030400FB6F8943EBF0FBE2DBF0DB73E
:101000001EB70F5F1F4FADB7BEB71296FC92EE92A0
:101010001197F801B382A282D582C4826091020541
:1010200070910305809104059091050520E030E062
:1010300040E05FE30E940C1C0E94DC1CD801179664
:101040007C936E9316970E943102EDB7FEB73896E7
:101050000FB6F894FEBF0FBEEDBFC7010E94E909AD
:1010600085E091E00E94E9092DB73EB72A50304053
:101070000FB6F8943EBF0FBE2DBF0DB71EB70F5F62
:101080001F4FADB7BEB71296FC92EE92119787E054
:10109000C82ED12CF801D382C28289E091E09583D9
:1010A00084836091060570910705809108059091F1
:1010B00009052FEB3EE04CE95EE30E94741C20E042
:1010C00030E040E05FE30E940C1C0E94DC1CD80171
:1010D00016966D937D938D939C9319970E94310280
:1010E000EDB7FEB73A960FB6F894FEBF0FBEEDBF50
:1010F000C7010E94E9098FE091E00E94E9092DB73C
:101100003EB7285030400FB6F8943EBF0FBE2DBFFB
:10111000EDB7FEB73196ADB7BEB71296FC92EE9220
:101120001197D382C28285E191E095838483809177
:10113000D9019091DA01978386830E943102EDB73D
:10114000FEB738960FB6F894FEBF0FBEEDBFC701CD
:101150000E94E9098AE191E00E94E9090E94D40D08
:101160002DB73EB7285030400FB6F8943EBF0FBEA3
:101170002DBFEDB7FEB73196ADB7BEB71296FC9254
:10118000EE92119726E030E0338322832EE131E0A6
:1011900035832483978386830E943102EDB7FEB79F
:1011A00038960FB6F894FEBF0FBEEDBFC7010E9480
:1011B000E90981E291E00E94E9090E94810D2DB7C1
:1011C0003EB72A5030400FB6F8943EBF0FBE2DBF39
:1011D000EDB7FEB73196ADB7BEB71296FC92EE9260
:1011E0001197D382C28226E231E03583248366835D
:1011F0007783808791870E943102EDB7FEB73A96D8
:101200000FB6F894FEBF0FBEEDBFC7010E94E909FB
:1012100080E20E949E098CE291E00E94E9090E940E
:101220005F0A0E946F0A2C960FB6F894DEBF0FBEBD
:10123000CDBFCF91DF911F910F91FF90EF90DF9085
:10124000CF90BF90AF900895EF92FF921F93CF93EE
:10125000DF93182F6091D9047091DA04A091DB0418
:101260004091D7025091D802B0E0E8E0EE2EE4E8D9
:10127000FE2EC1E0D0E04EC0E12FE1708E2F90E055
:10128000862797279C013695279580FF04C0B901D2
:101290006E257F2501C0B901EE23F1F020E1403039
:1012A0005207E0F5FA0193E0F695E7959A95E1F794
:1012B000E752FD4FCA01877090709E0102C0220F55
:1012C000331F8A95E2F7C9012081282B20834F5FC5
:1012D0005F4FAF5FA530E8F030E140305307F0F4E6
:1012E000FA0183E0F695E7958A95E1F7E752FD4F1D
:1012F000CA01877090709E0102C0220F331F8A9529
:10130000E2F7C90180952081822380834F5F5F4F80
:10131000A0E01695BF5FB93009F0AECF7093DA0444
:101320006093D904A093DB045093D8024093D70272
:10133000DF91CF911F91FF90EF9008950E942409B3
:101340000895CF93DF934091D7025091D80260E087
:1013500070E0CEE7D0E0A1E0B0E080E14030580797
:1013600088F5CE01062E02C0959587950A94E2F77E
:10137000FA0193E0F695E7959A95E1F79A012770BF
:10138000307080FF0CC0E752FD4FCD0102C0880FC6
:10139000991F2A95E2F79C018081822B0BC0E752AE
:1013A000FD4FCD0102C0880F991F2A95E2F7809565
:1013B0002081822380836F5F7F4F4F5F5F4F683054
:1013C000710559F65093D8024093D702DF91CF911F
:1013D0000895CF93DF93EC0102C00E942409899104
:1013E0008823D9F7DF91CF910895AF92BF92CF9222
:1013F000DF92EF92FF920F931F93CF93DF93182FFB
:10140000092F5B011092D8021092D7021092DB04D0
:101410008FEF9FEF9093DA048093D904C0E0D0E07F
:101420000E94A1092196CD32D105D1F7812F902FAD
:101430009C01790100E010E065010894C108D10821
:1014400027C0880F0E9424092196F701EC0FFD1F89
:1014500080818823B1F704C080E40E94240921968A
:10146000C630D105CCF3F70187810C151D0531F489
:1014700090E0C096880F991F816002C0805D880F40
:101480000E9424090F5F1F4F88E090E0E80EF91ECC
:101490000A151B051CF4C0E0D0E0D7CF83E00E9402
:1014A000240980EF0E942409DF91CF911F910F91B1
:1014B000FF90EF90DF90CF90BF90AF9008951F9373
:1014C0008091D9041091DA0480950E942409812F1B
:1014D00080950E9424090E94A1091F91089560919E
:1014E000D7027091D80289ED92E00E9403050E9414
:1014F00090060895DF93CF93CDB7DEB72C970FB644
:10150000F894DEBF0FBECDBF80E692E0BE016B5FF8
:101510007F4FAE01475F5F4F9E012F5F3F4F0E949D
:10152000111269817A818B819C8128EE33E040E041
:1015300050E00E94C01F3093DA012093D90120515E
:10154000374230F08FE097E29093DA018093D9012F
:101550002C960FB6F894DEBF0FBECDBFCF91DF91B2
:1015600008956F927F928F929F92AF92BF92CF9287
:10157000DF92EF92FF920F931F93DF93CF93CDB73C
:10158000DEB72C970FB6F894DEBF0FBECDBFB9E023
:101590006B2E712C6C0E7D1E80E692E0BE01695FA1
:1015A0007F4FAE014F5F5F4F9E012E5F3F4F8E0119
:1015B0000D5F1F4FA4E0EA2EF12CEC0EFD1EF5E0AE
:1015C000CF2ED12CCC0EDD1EE6E0AE2EB12CAC0E13
:1015D000BD1E43010E9446112DB73EB72A50304030
:1015E0000FB6F8943EBF0FBE2DBFEDB7FEB73196D4
:1015F0000CED14E0ADB7BEB712961C930E93119785
:1016000086E391E0938382838B81848315828C812E
:10161000868317828D81808711860E946202EDB7D2
:10162000FEB73A960FB6F894FEBF0FBEEDBFC801E5
:1016300060E070E00E94170280E692E063EE74E0E2
:1016400047EE54E093010E945912E090E304F090B9
:10165000E4040091E5041091E604C801B70120E01C
:1016600030E040E050E00E94E41D2BEE622E24E0CA
:10167000722E8823A4F1C801B7010E94DC1C4B0123
:101680005C01B401882777FD8095982F0E940F1D7B
:101690009B01AC01C801B7010E940B1C20E030E0A7
:1016A00040E752E40E94EF1D7B018C010E94DC1C8C
:1016B0002DB73EB72A5030400FB6F8943EBF0FBE4C
:1016C0002DBFCDB6DEB60894C11CD11CADB7BEB7D8
:1016D00012967C926E92119723E431E037C017FB8B
:1016E000109517F91095C801B7010E94DC1C4B0139
:1016F0005C01B401882777FD8095982F0E940F1D0B
:101700009B01AC01C801B7010E940B1C20E030E036
:1017100040E752E40E94EF1D7B018C010E94DC1C1B
:101720002DB73EB72A5030400FB6F8943EBF0FBEDB
:101730002DBFCDB6DEB60894C11CD11CADB7BEB767
:1017400012967C926E92119722E531E0F601338376
:1017500022839582848277836683882777FD8095AC
:10176000982F0E940F1D9B01AC01C801B7010E9478
:101770000B1C20E030E048EC52E40E94EF1D20E01A
:1017800030E040E05FE30E940C1C0E94DC1CD601AC
:1017900019967C936E9318970E9462021092F3043C
:1017A000EDB7FEB73A960FB6F894FEBF0FBEEDBF89
:1017B000E090E704F090E8040091E9041091EA0455
:1017C000C801B70120E030E040E050E00E94701C0A
:1017D00094EF692E94E0792E1816C4F117FB10953A
:1017E00017F91095C801B7010E94DC1C4B015C0180
:1017F000B401882777FD8095982F0E940F1D9B01CB
:10180000AC01C801B7010E940B1C20E030E040E7AA
:1018100052E40E94EF1D7B018C010E94DC1C2DB75D
:101820003EB72A5030400FB6F8943EBF0FBE2DBFD2
:10183000CDB6DEB60894C11CD11CADB7BEB71296AA
:101840007C926E92119721E631E033C0C801B70156
:101850000E94DC1C4B015C01B401882777FD809558
:10186000982F0E940F1D9B01AC01C801B7010E9477
:101870000B1C20E030E040E752E40E94EF1D7B01AA
:101880008C010E94DC1C2DB73EB72A5030400FB6A9
:10189000F8943EBF0FBE2DBFCDB6DEB60894C11C76
:1018A000D11CADB7BEB712967C926E92119720E70D
:1018B00031E0F601338322839582848277836683C5
:1018C000882777FD8095982F0E940F1D9B01AC0102
:1018D000C801B7010E940B1C20E030E048EC52E444
:1018E0000E94EF1D20E030E040E05FE30E940C1C0E
:1018F0000E94DC1CD60119967C936E9318970E9467
:1019000062021092FD04EDB7FEB73A960FB6F89456
:10191000FEBF0FBEEDBF80E692E00E947B10609399
:10192000060570930705809308059093090580E6E6
:1019300092E00E949E106093FE047093FF048093D7
:1019400000059093010580E692E00E94C11060932B
:10195000020570930305809304059093050589851E
:101960009A8568EE73E00E94AC1F7093DA01609371
:10197000D9012C960FB6F894DEBF0FBECDBFCF9124
:10198000DF911F910F91FF90EF90DF90CF90BF906C
:10199000AF909F908F907F906F9008958CED94E022
:1019A0006FE771E00E9422028BEE94E066E871E03E
:1019B0000E94220284EF94E06FE871E00E9422020C
:1019C00085E061E00E94371985E060E00E94F10C3B
:1019D0008EE996E040E855E260E070E00E94541A1B
:1019E0000895482F50E0CA0182599C4FFC01249170
:1019F000465A5C4FFA0184918823C1F0E82FF0E049
:101A0000EE0FFF1FEA5BFC4FA591B491662341F4F2
:101A10009FB7F8948C91209582238C939FBF089553
:101A20009FB7F8948C91822B8C939FBF089583B7B6
:101A3000817F83BF83B7816083BFE4E6F0E080816C
:101A400081608083808184608083808180688083DE
:101A500087E060E00E94F10C83B7816083BF8895C6
:101A600083B78E7F83BF87E061E00E94F10C83B76C
:101A70008E7F83BFE4E6F0E08081807180830895EB
:101A800086E060E00E94F10C089586E061E00E942B
:101A9000F10C69E170E080E090E00E947E1808950A
:101AA00086E061E00E94371986E060E00E94F10C58
:101AB00083E061E00E9437190895CF92DF92EF92A0
:101AC000FF920F931F938C016B0183E9E82E85E051
:101AD000F82EC70168E270E042E050E00E94FA157B
:101AE000C7010E944E15F8018083C7010E944E1560
:101AF000F60180831F910F91FF90EF90DF90CF90C0
:101B00000895DF93CF9300D0CDB7DEB7CE01019615
:101B1000BE016E5F7F4F0E945D0D798160E02A817A
:101B2000620F711D882777FD8095982F0E940F1DE9
:101B300020E030EC4CEC54E40E940B1C2AEA30E626
:101B400044E85FE30E94EF1D20E03CEC4CE456E4E7
:101B50000E94741C20E030E543EC57E40E94EF1D26
:101B600020E836EE45EC57E40E94741C21EB3CED76
:101B700042E45EE30E94521E9B01AC0160E070E013
:101B800080E89FE30E940B1C20E03AE24DE257E41C
:101B90000E94EF1D0E94DC1C9B01AC01CA010F904A
:101BA0000F90CF91DF91089581E00E94121980E09B
:101BB0000E9415196AE070E080E090E00E947E18B3
:101BC00080E00E941519A0E0B0E0BC01CD0124EE38
:101BD0003CE040E050E00E948D1F2AE095958795FB
:101BE000779567952A95D1F780E090E020EB3DEA64
:101BF00041E050E00E948D1F20E137E240E050E0DC
:101C00000E94C01FC90108950F931F93CF93DF93C4
:101C1000FC01738D76957170A685B78595857723C0
:101C200029F08C91892309F454C004C08C91892334
:101C300009F04FC08389948920E001972FEF8F3FEF
:101C40009207D9F7C589D689A685B785158560E03D
:101C500031E040E050E000E0CE01202F01972FEF6F
:101C60008F3F9207D9F78C91812311F0632B03C02A
:101C7000832F80956823330F4F5F5F4F48305105A6
:101C800059F78789908D20E001972FEF8F3F9207BA
:101C9000D9F77111609580914C0520914D0590E028
:101CA00001968F73907030E08217930779F0E0917E
:101CB0004C05F0E0E45FFA4F608380914C0590E0C2
:101CC00001968F73907080934C0503C0838D816063
:101CD000838FDF91CF911F910F9108951F920F92E3
:101CE0000FB60F9211242F933F934F935F936F93EF
:101CF0007F938F939F93AF93BF93EF93FF938091C5
:101D00000A0590910B05009711F00E94040EFF91B7
:101D1000EF91BF91AF919F918F917F916F915F9163
:101D20004F913F912F910F900FBE0F901F901895DC
:101D30001F920F920FB60F9211242F933F934F9340
:101D40005F936F937F938F939F93AF93BF93EF9323
:101D5000FF9380910A0590910B05009711F00E9466
:101D6000040EFF91EF91BF91AF919F918F917F9161
:101D70006F915F914F913F912F910F900FBE0F90F8
:101D80001F9018951F920F920FB60F9211242F9348
:101D90003F934F935F936F937F938F939F93AF93F3
:101DA000BF93EF93FF9380910A0590910B050097E5
:101DB00011F00E94040EFF91EF91BF91AF919F919E
:101DC0008F917F916F915F914F913F912F910F90E4
:101DD0000FBE0F901F901895FC012FEF3FEF4FEFB4
:101DE0005FEF2083318342835383108611861286EE
:101DF00013868FEF99ECAAE9BBE3808B918BA28BC2
:101E0000B38B808F918FA28FB38F80A391A3A2A356
:101E1000B3A380A791A7A2A7B3A780AB91ABA2ABB6
:101E2000B3AB20AF31AF42AF53AFE05CFF4F8FEFAA
:101E300090E091838083349620833183428353835F
:101E400038962083318342835383389611921082CF
:101E5000709682E0819311921192119211921192D7
:101E6000119211921192119211821082799710821F
:101E70000895EF92FF920F931F93CF93DF939C01EE
:101E8000EE24FC01EA5AFF4F80818D3231F4EE24BA
:101E9000E394E901C95ADF4F01C0EF018E0120E050
:101EA00030E040E050E018C0CA01B9012AE030E05B
:101EB00040E050E00E948D1F2F2D332727FD3095E5
:101EC000432F532F2053304040405040260F371FA0
:101ED000481F591F0F5F1F4FF801F0808F2D80534F
:101EE0008A3010F3CA01B90124E630E040E050E046
:101EF0000E948D1F9B01AC0101C021969881892F02
:101F000080538A30D0F39E3229F59981892F8053EE
:101F10008A3000F58AE09802C0011124805E914069
:101F2000AA2797FDA095BA2F280F391F4A1F5B1FBC
:101F30009A81892F80538A3068F4892F992787FDE9
:101F40009095C097AA2797FDA095BA2F280F391F03
:101F50004A1F5B1FEE2039F0509540953095219532
:101F60003F4F4F4F5F4FB901CA01DF91CF911F9192
:101F70000F91FF90EF9008954F925F926F927F9232
:101F80008F929F92AF92BF92CF92DF92EF92FF9289
:101F90000F931F93CF93DF9326E5822E912C880E0B
:101FA000991EE40120E030E040E050E017C0CA0193
:101FB000B9012AE030E040E050E00E948D1F212F5F
:101FC000332727FD3095432F532F20533040404077
:101FD0005040260F371F481F591F21961881812F07
:101FE00080538A3020F3722E632E542E452EB90171
:101FF000CA0124E630E040E050E00E94C01F20EA21
:1020000036E841E050E00E948D1F5B016C0103C087
:102010000894811C911CD4019C91892F80538A3093
:10202000B8F39E3269F580E1E82E87E2F82E012DA3
:10203000112D1DC0332727FD3095205330404427F4
:1020400037FD4095542FC801B7010E948D1FA60E81
:10205000B71EC81ED91EC801B7012AE030E040E013
:1020600050E00E94C01FC901DA017C018D01089473
:10207000811C911CF4012081822F80538A30D0F280
:1020800083E090E0A0E0B0E0A80EB91ECA1EDB1EFF
:10209000C601B50126E030E040E050E00E94C01FDC
:1020A00079018A01672D762D852D942D24E630E067
:1020B00040E050E00E94C01FCA01B90120E432E4B0
:1020C0004FE050E00E948D1FE60EF71E081F191FFB
:1020D000B701C801DF91CF911F910F91FF90EF9051
:1020E000DF90CF90BF90AF909F908F907F906F9038
:1020F0005F904F900895FC0160A171A182A193A10E
:102100006F3FF9EC7F07FAE98F07FBE39F0729F49C
:10211000E0E074E284E769E40AC00E940F1D20E059
:1021200030E048EC52E40E94741CE62F692F2E2FF9
:10213000372F482F562FB901CA010895FC0160A915
:1021400071A982A993A96F3FF9EC7F07FAE98F077C
:10215000FBE39F0729F4E0E070E08AE764E40AC04B
:102160000E940D1D20E030E048EC52E40E94741CF7
:10217000E62F692F2E2F372F482F562FB901CA016E
:102180000895EF92FF920F931F93FC0160A571A534
:1021900082A593A56F3FF9EC7F07FAE98F07FBE370
:1021A0009F07E9F00E940D1D20E030E048EC52E46A
:1021B0000E94741C7B018C0120E030E040E85FEB62
:1021C0000E94701C882359F0C801B70126E53EE043
:1021D0004DEE5FE30E94EF1DE62F692F04C0E0E0A3
:1021E00070E080E86FEB2E2F372F482F562FB90164
:1021F000CA011F910F91FF90EF9008950F931F93C5
:10220000CF93DF93FC01EB0189016115710541F06A
:1022100080859185A285B38588839983AA83BB83B2
:102220004115510549F080819181A281B381EA0174
:1022300088839983AA83BB830115110511F1EF01EE
:10224000CC5BDF4F88819981AA81BB818F5F9F4FD3
:10225000AF4FBF4F29F42FEF3FEF4FEF5FEF0CC0B1
:102260000E9470189B01AC0188819981AA81BB8171
:10227000281B390B4A0B5B0BE801288339834A83FF
:102280005B83DF91CF911F910F9108952F923F9221
:102290004F925F926F927F928F929F92AF92BF9276
:1022A000CF92DF92EF92FF920F931F93DF93CF9322
:1022B000CDB7DEB728970FB6F894DEBF0FBECDBFFF
:1022C0003B012A0119019401BE016F5F7F4FAE01EE
:1022D0004B5F5F4F0E94FE1061147104B9F0698179
:1022E0007A818B819C8124E630E040E050E00E94BE
:1022F000C01F613571051CF420ED37E002C02CE6EB
:1023000037E0260F371FF301318320834114510436
:10231000A1F069817A818B819C8124E630E040E0E4
:1023200050E00E94C01FCA01B90124E630E040E03D
:1023300050E00E94C01FF20160832114310461F05B
:1023400069817A818B819C8120E137E240E050E015
:102350000E94C01FF10120830115110561F06D81FC
:102360007E818F81988520E432E44FE050E00E9426
:10237000C01FF8012083E114F104A1F06D817E817A
:102380008F81988520E137E240E050E00E94C01F35
:10239000CA01B90124E630E040E050E00E94C01FCD
:1023A000F7016083C114D104A1F06D817E818F811A
:1023B000988524E630E040E050E00E94C01FCA014A
:1023C000B90124E630E040E050E00E94C01FF60171
:1023D0006083A114B10461F06D817E818F81988545
:1023E00024E630E040E050E00E94C01FF501608329
:1023F00028960FB6F894DEBF0FBECDBFCF91DF9108
:102400001F910F91FF90EF90DF90CF90BF90AF9012
:102410009F908F907F906F905F904F903F902F9004
:1024200008950F931F93CF93DF93FC01EB01890174
:102430006115710541F080899189A289B3898883EA
:102440009983AA83BB834115510549F0808D918DF5
:10245000A28DB38DEA0188839983AA83BB8301157A
:10246000110511F1EF01C45BDF4F88819981AA81C9
:10247000BB818F5F9F4FAF4FBF4F29F42FEF3FEFCF
:102480004FEF5FEF0CC00E9470189B01AC01888178
:102490009981AA81BB81281B390B4A0B5B0BE80190
:1024A000288339834A835B83DF91CF911F910F91FA
:1024B0000895EF92FF920F931F93DF93CF93CDB7C1
:1024C000DEB728970FB6F894DEBF0FBECDBF8B01E5
:1024D0007A01BE016F5F7F4FAE014B5F5F4F0E947D
:1024E000111269817A818B819C816F3F29EC72077F
:1024F0002AE982072BE3920729F4E0E070E08AE7FB
:1025000064E40AC00E940F1D20E034E244E759E46D
:102510000E94741CE62F692F2E2F372F482F562F1D
:10252000C901DA01F80180839183A283B383898191
:102530009A81AB81BC818F5F994CAA49BB4329F436
:10254000E0E070E08AE764E40EC06D817E818F81F7
:1025500098850E940F1D20E034E244E759E40E9470
:10256000741CE62F692F2E2F372F482F562FC901A5
:10257000DA01F70180839183A283B38328960FB693
:10258000F894DEBF0FBECDBFCF91DF911F910F91A9
:10259000FF90EF900895FF920F931F93CF93DF93D7
:1025A000EC01CB5ADF4F8881C555D040882309F410
:1025B000E9C0CA5ADF4F9881C655D040892F81544F
:1025C000863038F4292F332727FD309527533040A4
:1025D0000CC0292F332727FD30959156963018F4DB
:1025E0002755304002C020533040C95ADF4F488140
:1025F000C755D040842F8154863030F4842F9927DA
:1026000087FD9095C7970BC0842F992787FD9095DC
:102610004156463018F48755904001C0C09754E0A9
:10262000220F331F5A95E1F7982F920FCC5ADF4FA4
:102630008881C455D040981709F09BC0C859DF4F16
:102640008881C856D040882309F49EC1FE01E35911
:10265000FF4F80819181019691838083FE01EC5B25
:10266000FF4FC85BDF4F88819981AA81BB81C85425
:10267000D04080839183A283B383FE01E45BFF4F4C
:10268000C05BDF4F88819981AA81BB818083918360
:10269000A283B38365968881C556D0408823A1F173
:1026A000813009F064C08C819D81AE81BF818883B7
:1026B0009983AA83BB838C859D85AE85BF858887DA
:1026C0009987AA87BB878C899D89AE89BF89888BAA
:1026D000998BAA8BBB8B8C8D9D8DAE8DBF8D888F7A
:1026E000998FAA8FBB8F8CA59DA5AEA5BFA588A7E6
:1026F00099A7AAA7BBA78CA99DA9AEA9BFA988AB7A
:1027000099ABAAABBBAB33C08CA19DA1AEA1BFA1BD
:1027100088A399A3AAA3BBA38C819D81AE81BF810D
:1027200088839983AA83BB838C899D89AE89BF895D
:10273000888B998BAA8BBB8B8C8D9D8DAE8DBF8D1D
:10274000888F998FAA8FBB8FFE01E05CFF4FCE5B15
:10275000DF4F88819981C254D040918380838CADB2
:102760009DADAEADBFAD88AF99AFAAAFBBAF81E0B5
:102770000CC1FE01E159FF4F808191810196918347
:10278000808302C1CA59DF4F8881C656D040882352
:1027900021F59E012A5A3F4FD901E9E9F1E002C033
:1027A000119631969C91992339F080819817C1F345
:1027B000D901EFE9F1E006C0CB59DF4F81E0EEC06F
:1027C000119631969C91992321F080819817C1F33D
:1027D000E2C0CB59DF4F1882D7C0CB59DF4F3881C9
:1027E000C556D040323009F4CFC0CA5ADF4F2881D5
:1027F000C655D040222309F4C7C0E32FF0E045E0DE
:10280000EE0FFF1F4A95E1F790E0E82BF92B319787
:10281000E932F10508F0B8C0EC5CFF4FEE0FFF1F86
:102820000590F491E02D0994CE010E94390F6C833C
:102830007D838E839F830E947018C85BDF4F13C017
:10284000FE01E859FF4F1082213409F09DC07FC07E
:10285000CE010E94BC0F6C8B7D8B8E8B9F8B0E9458
:102860007018C05BDF4F688379838A839B838CC039
:10287000233509F089C08C899D89AE89BF89B095BF
:10288000A095909581959F4FAF4FBF4F8C8B9D8B9F
:10289000AE8BBF8B79C0CE010E94BC0F6C8F7D8F39
:1028A0008E8F9F8F71C0273509F06EC08C8D9D8DE6
:1028B000AE8DBF8DB095A095909581959F4FAF4FF0
:1028C000BF4F8C8F9D8FAE8FBF8F5EC0CE010E9499
:1028D000390F6CA77DA78EA79FA756C0CE010E9477
:1028E000390F6CAB7DAB8EAB9FAB4EC08E010A5ADD
:1028F0001F4F20E030E040E050E018C0CA01B901AD
:102900002AE030E040E050E00E948D1F2F2D332759
:1029100027FD3095432F532F2053304040405040E7
:10292000260F371F481F591F0F5F1F4FF801F080F8
:102930008F2D80538A3010F32C873D874E875F8719
:1029400023C0FE01E859FF4F10822133ECF081E0F3
:1029500080831AC0CE018A5A9F4F0E94F901FE015E
:10296000EE5BFF4F808311820FC0CE010E94390FB2
:102970006CAF7DAF8EAF9FAF07C0CE010E94390F05
:102980006CA37DA38EA39FA380E0DF91CF911F91C5
:102990000F91FF900895CB59DF4F82E08883F4CFE9
:1029A0001F93CF93DF93EC01162FFC01E759FF4FE4
:1029B00080819181A281B3810196A11DB11D808387
:1029C0009183A283B3836432A1F1DE01A959BF4F81
:1029D00065322CF46A3069F06D30C9F50AC06A328C
:1029E00041F06C32A1F5FE01EC5AFF4F8081862741
:1029F00080838C918F3010F090E00AC0FE01E80FC8
:102A0000F11DEA5AFF4F1082CE010E94CB12982F7F
:102A1000FE01EA59FF4F80818F5F8083C959DF4FE4
:102A20001882FE01729710821A3251F581E080837C
:102A300027C0C959DF4F18821A926297188261968F
:102A400082E08883609718826396188218C08C9100
:102A50008E3040F4FE01E80FF11DEA5AFF4F10835B
:102A60008F5F8C93CB5ADF4F8881C555D040882328
:102A700031F4FE01EC5AFF4F80818127808390E082
:102A8000892FDF91CF911F91089520916F0530E03C
:102A900080916E05281B3109C901089540916E058A
:102AA00080916F05481718F02FEF3FEF0AC0E42F11
:102AB000F0E0E25BFA4F8081282F30E04F5F4093D7
:102AC0006E05C9010895E0916E0580916F05E817C4
:102AD00018F0EFEFFFEF06C0F0E0E25BFA4F808105
:102AE000E82FF0E0CF010895089510929605109216
:102AF000950588EE93E0A0E0B0E080939705909371
:102B00009805A0939905B0939A0588E092E0909378
:102B10009405809393050895CF92DF92EF92FF92F0
:102B20000F931F93CF93DF937C016B018A018091F8
:102B300092058823A1F0C0E0D0E00DC0D701ED914F
:102B4000FC91D601AC0FBD1F0190F081E02DC701B3
:102B50006C9109952196C017D10780F304C0CB0171
:102B6000642F0E945216C801DF91CF911F910F91DF
:102B7000FF90EF90DF90CF900895DF93CF930F9267
:102B8000CDB7DEB7FC016983809192058823C9F037
:102B900080919105803238F081E090E093838283C8
:102BA00020E030E015C080919005E82FF0E0E0597A
:102BB000FA4F998190838F5F809390058093910560
:102BC00005C0CE01019661E00E94521621E030E07E
:102BD000C9010F90CF91DF910895413208F040E292
:102BE000862F6EE475E00E94091610926E058093A0
:102BF0006F05089521E00E94ED15089510926E056D
:102C000010926F0510929005109291050E94FE1788
:102C10000895382F413210F040E042C080919F0566
:102C20008823E1F791E090939F052093A1058FEF12
:102C300080930C061092C70541504093C8054F5F22
:102C40009093A0058091A005330F832B8093A0055E
:102C50008091A205813041F41092A2058091A005D7
:102C60008093BB0085EC01C085EE8093BC00809111
:102C70009F058130E1F38091C705841710F44091DE
:102C8000C70520E030E00AC0FB01E20FF31FD901C5
:102C9000A955BA4F8C9180832F5F3F4F2417A0F323
:102CA000842F0895482F613210F081E008958091BB
:102CB0009F05843011F082E008956093EA05A9EC45
:102CC000B5E0842F9C01F90102C081918D938E2F74
:102CD000841B8617D0F380E008951F920F920FB6E1
:102CE0000F9211242F933F934F935F936F937F9392
:102CF0008F939F93AF93BF93EF93FF938091B9000E
:102D000090E0887F90708036910509F4F2C081369A
:102D10009105CCF58832910509F47BC08932910583
:102D2000B4F48031910509F46FC0813191053CF410
:102D3000009709F447C1089709F04FC165C0883171
:102D4000910509F466C0809709F047C182C08034BC
:102D5000910509F4A4C08134910544F480339105B0
:102D600009F482C0C89709F038C189C0803591053F
:102D700009F489C08835910509F496C08834910515
:102D800009F02BC1AEC08839910509F413C1893906
:102D90009105ECF48837910509F4ABC089379105AA
:102DA0004CF48836910509F4A4C08037910509F0E8
:102DB00014C19FC08838910509F4FCC08039910581
:102DC00009F49DC08038910509F007C198C0803B87
:102DD000910509F4C6C0813B91054CF4803A9105F8
:102DE00009F49FC0883A910509F0F7C0BAC0803C49
:102DF000910509F4E3C0883C910509F4DFC0883BE4
:102E0000910509F0EAC0C2C08091A0058093BB0083
:102E1000CFC09091C7058091C805981768F490912C
:102E2000C705E92FF0E0E955FA4F80818093BB0098
:102E30009F5F9093C705BCC08091A105882309F4CA
:102E40004BC085ED8093BC008091BC0084FDFCCF1D
:102E5000C2C080E280930C0685ED8093BC00809117
:102E6000BC0084FDFCCFB7C080E380930C0685EDE9
:102E70008093BC008091BC0084FDFCCFACC088E393
:102E800080930C069BC08091C7059091BB00E82FF2
:102E9000F0E0E955FA4F90838F5F8093C7059091DA
:102EA000C7058091C80582C08091C7059091BB007D
:102EB000E82FF0E0E955FA4F90838F5F8093C705C4
:102EC0008091A105882341F085ED8093BC0080911D
:102ED000BC0084FDFCCF7FC081E08093A20584EA22
:102EE0006EC085ED8093BC008091BC0084FDFCCF5A
:102EF00072C083E080939F0510920B0659C08091A9
:102F00000B06803208F056C080910B069091BB00F2
:102F1000E82FF0E0E551FA4F90838F5F80930B0626
:102F200047C080910B06803230F4E0910B06F0E050
:102F3000E551FA4F108285ED8093BC008091BC0072
:102F400084FDFCCF10929F0560910B06E091A505D2
:102F5000F091A6058BEE95E070E0099510920B06B6
:102F60002DC084E080939F051092E9051092EA0538
:102F7000E091A305F091A40509958091EA058823C5
:102F800029F481E08093EA051092C9059091E90542
:102F9000E92FF0E0E753FA4F80818093BB009F5FF9
:102FA0009093E9059091E9058091EA05981710F44E
:102FB00085EC01C085E88093BC000FC085EC809350
:102FC000BC0009C010920C0685ED8093BC00809176
:102FD000BC0084FDFCCF10929F05FF91EF91BF9143
:102FE000AF919F918F917F916F915F914F913F91A1
:102FF0002F910F900FBE0F901F90189510929F0564
:1030000081E08093A1051092A20582E161E00E9417
:10301000761983E161E00E947619E9EBF0E08081A6
:103020008E7F808380818D7F808380E28093B80053
:1030300085E48093BC0008951F920F920FB60F9203
:1030400011242F933F934F935F936F937F938F93AD
:103050009F93AF93BF932091110630911206409138
:1030600013065091140670911506DA01C9010296F3
:10307000A11DB11D672F6A5F6D3730F06D57DA0102
:10308000C9010396A11DB11D609315068093110619
:1030900090931206A0931306B093140680910D0628
:1030A00090910E06A0910F06B09110060196A11DF9
:1030B000B11D80930D0690930E06A0930F06B0935A
:1030C0001006BF91AF919F918F917F916F915F910A
:1030D0004F913F912F910F900FBE0F901F90189519
:1030E0008FB7F89420911106309112064091130683
:1030F000509114068FBFB901CA0108959B01AC011C
:103100007FB7F89480910D0690910E06A0910F065E
:10311000B091100666B5A89B05C06F3F19F00196E7
:10312000A11DB11D7FBFBA2FA92F982F8827860F09
:10313000911DA11DB11D63E0880F991FAA1FBB1F20
:103140006A95D1F7BC012DC0FFB7F89480910D06A8
:1031500090910E06A0910F06B0911006E6B5A89BBF
:1031600005C0EF3F19F00196A11DB11DFFBFBA2F99
:10317000A92F982F88278E0F911DA11DB11DE3E067
:10318000880F991FAA1FBB1FEA95D1F7861B970BC3
:10319000885E9340C8F22150304040405040685112
:1031A0007C4F211531054105510571F6089578943C
:1031B00084B5826084BD84B5816084BD85B582603C
:1031C00085BD85B5816085BDEEE6F0E080818160DA
:1031D0008083E1E8F0E010828081826080838081DA
:1031E00081608083E0E8F0E0808181608083E1EBB2
:1031F000F0E0808184608083E0EBF0E0808181609A
:103200008083EAE7F0E0808184608083808182604F
:103210008083808181608083808180688083109238
:10322000C10008958093DB010895982F8E3008F037
:103230009E5097708091DB018295880F880F807C6B
:10324000892B80937C0080917A00806480937A003F
:1032500080917A0086FDFCCF209178004091790022
:10326000942F80E030E0282B392BC9010895CF93AB
:10327000DF93482F50E0CA0182599C4FFC013491E2
:10328000465A5C4FFA018491882369F190E0880FD7
:10329000991FFC01E45CFC4FA591B491FC01EA5B31
:1032A000FC4FC591D491662351F42FB7F8948C91BB
:1032B000932F909589238C93888189230BC062304A
:1032C00061F42FB7F8948C91932F909589238C9368
:1032D0008881832B88832FBF06C09FB7F8948C9179
:1032E000832B8C939FBFDF91CF910895482F50E09F
:1032F000CA018E579C4FFC012491CA0182599C4FF0
:10330000FC019491465A5C4FFA013491332309F43D
:1033100040C0222351F1233071F0243028F42130B1
:10332000A1F0223011F514C02630B1F02730C1F0E1
:103330002430D9F404C0809180008F7703C080913D
:1033400080008F7D8093800010C084B58F7702C08D
:1033500084B58F7D84BD09C08091B0008F7703C094
:103360008091B0008F7D8093B000E32FF0E0EE0FEE
:10337000FF1FEA5BFC4FA591B4912FB7F894662329
:1033800021F48C919095892302C08C91892B8C9388
:103390002FBF089508951F920F920FB60F92112418
:1033A0002F933F934F938F939F93EF93FF9380912E
:1033B000C00082FD1DC04091C6002091560630918C
:1033C00057062F5F3F4F2F733070809158069091B2
:1033D00059062817390771F0E0915606F091570603
:1033E000EA5EF94F4083309357062093560602C099
:1033F0008091C600FF91EF919F918F914F913F91E6
:103400002F910F900FBE0F901F901895E091AA0674
:10341000F091AB06E05CFF4F819191912081318169
:10342000821B930B8F739070892B11F00E94CA1925
:1034300008951F920F920FB60F9211242F933F936E
:103440008F939F93EF93FF9320919A0630919B0661
:1034500080919C0690919D062817390731F4809140
:10346000C1008F7D8093C10014C0E0919C06F09153
:103470009D06E65AF94F208180919C0690919D0609
:1034800001968F73907090939D0680939C06209375
:10349000C600FF91EF919F918F913F912F910F90D7
:1034A0000FBE0F901F901895AF92BF92DF92EF92D0
:1034B000FF920F931F93CF93DF93EC017A018B015F
:1034C000DD24D39491E0A92EB12CEC89FD89DD2077
:1034D00069F0C50108A002C0880F991F0A94E2F79D
:1034E000808360E874E88EE190E005C0108260E4BB
:1034F00072E48FE090E0A80197010E94C01F215064
:10350000304040405040569547953795279580E18B
:103510002030380720F0DD2011F0DD24D6CFE889F7
:10352000F9893083EA89FB89208319A2EE89FF8912
:10353000408121E030E0C9010C8C02C0880F991F46
:103540000A94E2F7482B4083EE89FF894081C90144
:103550000D8C02C0880F991F0A94E2F7482B408314
:10356000EE89FF894081C9010E8C02C0880F991F26
:103570000A94E2F7482B4083EE89FF8980810F8C03
:1035800002C0220F331F0A94E2F7209528232083DC
:10359000DF91CF911F910F91FF90EF90DF90BF903F
:1035A000AF900895DC011C96ED91FC911D97E05CB5
:1035B000FF4F2191319180819181281B390B2F730D
:1035C0003070C9010895DC011C96ED91FC911D97A6
:1035D000E05CFF4F20813181E054F040DF01AE5BC1
:1035E000BF4F8D919C9111972817390719F42FEF30
:1035F0003FEF07C08D919C91E80FF91F8081282F24
:1036000030E0C9010895DC011C96ED91FC911D97F5
:10361000E05CFF4F20813181E054F040DF01AE5B80
:10362000BF4F8D919C9111972817390719F42FEFEF
:103630003FEF10C08D919C911197E80FF91F2081E9
:103640008D919C91119701968F73907011969C9318
:103650008E9330E0C9010895DC0191968C91919789
:10366000882339F05496ED91FC915597808186FF1F
:10367000F9CF91961C920895CF93DF93EC01EE85DC
:10368000FF85E05CFF4F20813181E054F0402F5FE7
:103690003F4F2F733070DF01AE5BBF4F8D919C9118
:1036A000119728173907D1F3E05CFF4F8081918192
:1036B000E054F040E80FF91F6083EE85FF85E05C81
:1036C000FF4F31832083EE89FF89208181E090E0E4
:1036D0000F8C02C0880F991F0A94E2F7282B2083D1
:1036E00081E089A3EC89FD8980818064808381E009
:1036F00090E0DF91CF9108951092A1061092A0065C
:1037000088EE93E0A0E0B0E08093A2069093A30639
:10371000A093A406B093A50688E192E090939F063B
:1037200080939E0686E196E09093AB068093AA066E
:103730008AE596E09093AD068093AC0685EC90E028
:103740009093AF068093AE0684EC90E09093B10620
:103750008093B00680EC90E09093B3068093B2061D
:1037600081EC90E09093B5068093B40682EC90E0F3
:103770009093B7068093B60686EC90E09093B906D6
:103780008093B80684E08093BA0683E08093BB06FA
:1037900087E08093BC0685E08093BD0681E080933E
:1037A000BE060895CF93DF930E94D7180E945B074F
:1037B000C6E0DAE10E9421072097E1F30E94061A91
:1037C000F9CFCF92DF92EF92FF920F931F93CF9397
:1037D000DF937C016B018A01C0E0D0E00FC0D6010D
:1037E0006D916D01D701ED91FC910190F081E02D7B
:1037F000C7010995C80FD91F0150104001151105C7
:1038000071F7CE01DF91CF911F910F91FF90EF9053
:10381000DF90CF9008955058BB27AA270ED09AC1A9
:103820008BD130F090D120F031F49F3F11F41EF491
:103830005BC10EF4E095E7FB51C1E92F9CD180F309
:10384000BA17620773078407950718F071F49EF59D
:10385000B4C10EF4E0950B2EBA2FA02D0B01B901C7
:1038600090010C01CA01A0011124FF27591B99F0F6
:10387000593F50F4503E68F11A16F040A22F232F02
:10388000342F4427585FF3CF469537952795A79552
:10389000F0405395C9F77EF41F16BA0B620B730BF9
:1038A000840BBAF09150A1F0FF0FBB1F661F771F6A
:1038B000881FC2F70EC0BA0F621F731F841F48F41F
:1038C000879577956795B795F7959E3F08F0B3CFA5
:1038D0009395880F08F09927EE0F9795879508958F
:1038E000D9D008F481E008950CD034C12CD140F037
:1038F00023D130F021F45F3F19F0F0C051115EC1C7
:10390000F3C039D198F39923C9F35523B1F3951B2B
:10391000550BBB27AA2762177307840738F09F5FF0
:103920005F4F220F331F441FAA1FA9F333D00E2E5F
:103930003AF0E0E830D091505040E695001CCAF7CC
:1039400029D0FE2F27D0660F771F881FBB1F261791
:1039500037074807AB07B0E809F0BB0B802DBF0164
:10396000FF2793585F4F2AF09E3F510568F0B6C07D
:1039700025C15F3FECF3983EDCF38695779567951C
:10398000B795F7959F5FC9F7880F911D9695879515
:1039900097F90895E1E0660F771F881FBB1F621734
:1039A00073078407BA0720F0621B730B840BBA0BF2
:1039B000EE1F88F7E095089504D06894B111FEC019
:1039C0000895E1D088F09F5790F0B92F9927B7510B
:1039D000A0F0D1F0660F771F881F991F1AF0BA95D3
:1039E000C9F712C0B13081F0E8D0B1E00895E5C068
:1039F000672F782F8827B85F39F0B93FCCF38695C9
:103A000077956795B395D9F73EF490958095709525
:103A100061957F4F8F4F9F4F0895E89409C097FBA2
:103A20003EF490958095709561957F4F8F4F9F4F95
:103A30009923A9F0F92F96E9BB279395F6958795D9
:103A400077956795B795F111F8CFFAF4BB0F11F49C
:103A500060FF1BC06F5F7F4F8F4F9F4F16C0882343
:103A600011F096E911C0772321F09EE8872F762F79
:103A700005C0662371F096E8862F70E060E02AF0BA
:103A80009A95660F771F881FDAF7880F96958795A6
:103A900097F90895990F0008550FAA0BE0E8FEEF7B
:103AA00016161706E807F907C0F012161306E40702
:103AB000F50798F0621B730B840B950B39F40A26FB
:103AC00061F0232B242B252B21F408950A2609F4D9
:103AD000A140A6958FEF811D811D089597F99F67DD
:103AE00080E870E060E008959FEF80EC0895DF9338
:103AF000CF931F930F93FF92EF92DF927B018C0184
:103B0000689405C0DA2EEF0176D0FE01E894A59105
:103B10002591359145915591AEF3EF018EDEFE0171
:103B20009701A801DA9479F7DF90EF90FF900F9159
:103B30001F91CF91DF91089500240A94161617065D
:103B400018060906089500240A941216130614068E
:103B500005060895092E0394000C11F4882352F0F1
:103B6000BB0F40F4BF2B11F460FF04C06F5F7F4FA9
:103B70008F4F9F4F089557FD9058440F551F59F090
:103B80005F3F71F04795880F97FB991F61F09F3F4A
:103B900079F087950895121613061406551FF2CF73
:103BA0004695F1DF08C0161617061806991FF1CFC3
:103BB00086957105610508940895E894BB276627EA
:103BC0007727CB0197F9089565DF08F48FEF089503
:103BD0009B01AC0160E070E080E89FE385CE0BD0F4
:103BE000B9CFAADF28F0AFDF18F0952309F076CF20
:103BF0007BCF1124E3CFBFDFA0F3959FD1F3950FC7
:103C000050E0551F629FF001729FBB27F00DB11D60
:103C1000639FAA27F00DB11DAA1F649F6627B00DF0
:103C2000A11D661F829F2227B00DA11D621F739FD9
:103C3000B00DA11D621F839FA00D611D221F749FE7
:103C40003327A00D611D231F849F600D211D822F2E
:103C5000762F6A2F11249F5750408AF0E1F0882375
:103C60004AF0EE0FFF1FBB1F661F771F881F915082
:103C70005040A9F79E3F510570F030CF9FCF5F3F76
:103C8000ECF3983EDCF3869577956795B795F795B5
:103C9000E7959F5FC1F7FE2B880F911D969587953D
:103CA00097F90895FA01EE0FFF1F309621053105AF
:103CB00099F16115710561F48038BFE39B0749F103
:103CC00068949038810561F08038BFEF9B0741F020
:103CD000992342F5FF3FE1053105210511F1E894F3
:103CE0000894E795D901AA2329F4AB2FBE2FF85FDA
:103CF000D0F310C0FF5F70F4A695E0F7F73950F0ED
:103D000019F0FF3A38F49F779F930CD00F9007FC7F
:103D1000905808953EF0E8CE60E070E080E89FE3C0
:103D200008954FE79F775F934F933F932F9382D0F0
:103D30002F913F914F915F9152DF05C019F40EF022
:103D4000CDCE3BCFD1CE1FDFC8F39638C0F707F8F2
:103D50000F92E8942BE33AEA48EB5FE74EDF0F92CD
:103D60000F920F924DB75EB70F92A4D0EAEBF0E03E
:103D7000BEDE4F915F91EF91FF91E595EE1FFF1F22
:103D800049F0FE57E0684427EE0F441FFA95E1F72B
:103D90004195550B16D00F9007FE1ACF08959F3FFF
:103DA00049F0915028F4869577956795B7959F5F70
:103DB00080389F4F880F9695879597F908958ECEF6
:103DC000EECFE1DEE8F39923D9F3940F511DBBF355
:103DD0009150504094F059F0882332F0660F771FCD
:103DE000881F91505040C1F79E3F510544F7880FFE
:103DF000911D9695879597F908955F3FACF0983E91
:103E00009CF0BB27869577956795B79508F4B160C8
:103E10009395C1F7BB0F58F711F460FFE8CF6F5FC0
:103E20007F4F8F4F9F4FE3CFC9CE0EF0B8CF5CCE00
:103E3000689454CEA8DEC8F39923D1F3C6F3DF9378
:103E4000CF931F930F93FF92C92FDD2788232AF06A
:103E50002197660F771F881FDAF720E030E040E8EF
:103E60005FEB9FE3883920F0803E30F021968F771A
:103E7000D3DCE2EEF0E003C0CFDCEFE0F1E037DED0
:103E80008B01BE01EC01FB2E6F5771097595771FF1
:103E9000880B990BC4DD28E132E741E35FE3ABDE39
:103EA000AF2D9801AE01FF900F911F91CF91DF913F
:103EB000C4DC50CEFA01DC01AA0FBB1F9B01AC0190
:103EC000BF5728F422273327442750781FC0B75103
:103ED00088F4AB2F0024469537952795011CA395B0
:103EE000D2F3002069F0220F331F441FB395DAF399
:103EF0000DD091CC61307105A0E88A07B94630F445
:103F00009B01AC016627772788279078309621F0AF
:103F100020833183428353830895629FD001739F2E
:103F2000F001829FE00DF11D649FE00DF11D929F55
:103F3000F00D839FF00D749FF00D659FF00D992794
:103F4000729FB00DE11DF91F639FB00DE11DF91FB8
:103F5000BD01CF0111240895AA1BBB1B51E107C06D
:103F6000AA1FBB1FA617B70710F0A61BB70B881F09
:103F7000991F5A95A9F780959095BC01CD01089598
:103F8000A1E21A2EAA1BBB1BFD010DC0AA1FBB1F5D
:103F9000EE1FFF1FA217B307E407F50720F0A21BCF
:103FA000B30BE40BF50B661F771F881F991F1A943C
:103FB00069F760957095809590959B01AC01BD0166
:103FC000CF010895EE0FFF1F0590F491E02D0994A5
:103FD0002F923F924F925F926F927F928F929F9219
:103FE000AF92BF92CF92DF92EF92FF920F931F9307
:103FF000CF93DF93CDB7DEB7CA1BDB0B0FB6F894B8
:10400000DEBF0FBECDBF09942A88398848885F84F7
:104010006E847D848C849B84AA84B984C884DF8068
:10402000EE80FD800C811B81AA81B981CE0FD11D4C
:104030000FB6F894DEBF0FBECDBFED010895F89422
:02404000FFCFB0
:1040420025303364002F413D002530366C64002F4B
:104052004C56503D0025303575002F563D002564E5
:10406200002F41503D002530356C640042414C55D3
:10407200412E4F52470025303264253032642530BC
:1040820032640025303264253032642E25303264A9
:104092004E0025303264253032642E25303264538E
:1040A2000025303364253032642E253032645700C7
:1040B20025303364253032642E2530326445003099
:1040C200303030303000303030302E30304E003032
:1040D200303030302E303045004750524D4300478B
:1040E20050474741004E004E4E45004E4500454E5A
:1040F2004500450045534500534500535345005381
:104102000053535700535700575357005700574E09
:1041120057004E57004E4E57000F27010002127AE9
:104122000000415052530000000043523642414CBD
:10413200000B574944453200000100000000500DB9
:10414200450D400D00000000BD158C1545154E159E
:1041520063157415000000003C1BE11BD21A031BFF
:04416200E31A2C1B15
:00000001FF
